{
  "contractName": "HashTimeLock",
  "abi": [
    {
      "constant": true,
      "inputs": [],
      "name": "hashOfSecret",
      "outputs": [
        {
          "name": "",
          "type": "bytes32"
        }
      ],
      "payable": false,
      "stateMutability": "view",
      "type": "function"
    },
    {
      "constant": true,
      "inputs": [],
      "name": "assetLocker",
      "outputs": [
        {
          "name": "",
          "type": "address"
        }
      ],
      "payable": false,
      "stateMutability": "view",
      "type": "function"
    },
    {
      "constant": true,
      "inputs": [],
      "name": "endBlockNumber",
      "outputs": [
        {
          "name": "",
          "type": "uint256"
        }
      ],
      "payable": false,
      "stateMutability": "view",
      "type": "function"
    },
    {
      "constant": true,
      "inputs": [],
      "name": "assetFetcher",
      "outputs": [
        {
          "name": "",
          "type": "address"
        }
      ],
      "payable": false,
      "stateMutability": "view",
      "type": "function"
    },
    {
      "inputs": [
        {
          "name": "_assetLocker",
          "type": "address"
        },
        {
          "name": "_assetFetcher",
          "type": "address"
        },
        {
          "name": "periodBlockNumber",
          "type": "uint256"
        },
        {
          "name": "_hashOfSecret",
          "type": "bytes32"
        }
      ],
      "payable": true,
      "stateMutability": "payable",
      "type": "constructor"
    },
    {
      "constant": false,
      "inputs": [],
      "name": "returnToLocker",
      "outputs": [],
      "payable": false,
      "stateMutability": "nonpayable",
      "type": "function"
    },
    {
      "constant": false,
      "inputs": [
        {
          "name": "secret",
          "type": "bytes"
        }
      ],
      "name": "sendToFetcher",
      "outputs": [],
      "payable": false,
      "stateMutability": "nonpayable",
      "type": "function"
    }
  ],
  "bytecode": "0x608060405260405160808061051e8339810180604052608081101561002357600080fd5b8101908080519060200190929190805190602001909291908051906020019092919080519060200190929190505050836000806101000a81548173ffffffffffffffffffffffffffffffffffffffff021916908373ffffffffffffffffffffffffffffffffffffffff16021790555082600160006101000a81548173ffffffffffffffffffffffffffffffffffffffff021916908373ffffffffffffffffffffffffffffffffffffffff160217905550436003819055508160035401600481905550806002819055505050505061041f806100ff6000396000f3fe608060405260043610610078576000357c0100000000000000000000000000000000000000000000000000000000900463ffffffff1680631870c4da1461007d57806387291aeb146101455780639a5ce37e14610170578063b4999e85146101c7578063becf9980146101f2578063d232d3d514610209575b600080fd5b34801561008957600080fd5b50610143600480360360208110156100a057600080fd5b81019080803590602001906401000000008111156100bd57600080fd5b8201836020820111156100cf57600080fd5b803590602001918460018302840111640100000000831117156100f157600080fd5b91908080601f016020809104026020016040519081016040528093929190818152602001838380828437600081840152601f19601f820116905080830192505050505050509192919290505050610260565b005b34801561015157600080fd5b5061015a61030a565b6040518082815260200191505060405180910390f35b34801561017c57600080fd5b50610185610310565b604051808273ffffffffffffffffffffffffffffffffffffffff1673ffffffffffffffffffffffffffffffffffffffff16815260200191505060405180910390f35b3480156101d357600080fd5b506101dc610335565b6040518082815260200191505060405180910390f35b3480156101fe57600080fd5b5061020761033b565b005b34801561021557600080fd5b5061021e6103cd565b604051808273ffffffffffffffffffffffffffffffffffffffff1673ffffffffffffffffffffffffffffffffffffffff16815260200191505060405180910390f35b6004544310151561027057600080fd5b600254818051906020012014151561028757600080fd5b600160009054906101000a900473ffffffffffffffffffffffffffffffffffffffff1673ffffffffffffffffffffffffffffffffffffffff166108fc3073ffffffffffffffffffffffffffffffffffffffff16319081150290604051600060405180830381858888f19350505050158015610306573d6000803e3d6000fd5b5050565b60025481565b6000809054906101000a900473ffffffffffffffffffffffffffffffffffffffff1681565b60045481565b600454431015151561034c57600080fd5b6000809054906101000a900473ffffffffffffffffffffffffffffffffffffffff1673ffffffffffffffffffffffffffffffffffffffff166108fc3073ffffffffffffffffffffffffffffffffffffffff16319081150290604051600060405180830381858888f193505050501580156103ca573d6000803e3d6000fd5b50565b600160009054906101000a900473ffffffffffffffffffffffffffffffffffffffff168156fea165627a7a72305820b2c3715af4625e3d60924f6e10241cbb94f63689fd0d29415546ad45d64f0e100029",
  "source": "pragma solidity ^0.5.0;\n\ncontract HashTimeLock{\n    \n    address payable public assetLocker;\n    address payable public assetFetcher;\n\n    bytes32 public hashOfSecret;\n\n    uint private startBlockNumber;\n    uint public endBlockNumber;\n\n    modifier onlyLocker(){\n        require(msg.sender == assetLocker);\n        _;\n    }\n\n    modifier onlyFetcher(){\n        require(msg.sender == assetFetcher);\n        _;\n    }\n\n    constructor (address payable _assetLocker, address payable _assetFetcher, \n        uint periodBlockNumber, bytes32 _hashOfSecret) \n    public \n    payable\n    {\n        assetLocker = _assetLocker;\n        assetFetcher = _assetFetcher;\n        startBlockNumber = block.number;\n        endBlockNumber = startBlockNumber + periodBlockNumber;\n        hashOfSecret = _hashOfSecret;\n    }\n\n    function returnToLocker() public{\n        require( block.number >= endBlockNumber );\n        assetLocker.transfer(address(this).balance);\n    }\n\n    function sendToFetcher( bytes memory secret ) public{\n        require( block.number < endBlockNumber );\n        require( keccak256(secret) == hashOfSecret );\n        assetFetcher.transfer(address(this).balance);\n    }\n\n}",
  "sourcePath": "/Users/sungshil/Projects/ETHUofT/AtomicSwap/ethHashTimeLock/contracts/HashTimeLock.sol",
  "compiler": {
    "name": "solc",
    "version": "0.5.0+commit.1d4f565a.Emscripten.clang"
  },
  "schemaVersion": "3.0.1",
  "updatedAt": "2019-03-09T01:05:59.841Z",
  "devdoc": {
    "methods": {}
  },
  "userdoc": {
    "methods": {}
  }
}